:020000040800F2
:100000009806002045010008F91A00086916000842
:1000100099190008C9030008112200080000000017
:10002000000000000000000000000000851C000827
:10003000CB030008000000007D1B0008871C00089F
:100040005F0100085F0100085F0100085F01000810
:100050005F0100085F0100085F0100085F01000800
:100060005F0100085F0100085F0100085F010008F0
:100070005F0100085F0100085F0100085F010008E0
:100080005F0100085F0100085F0100085F010008D0
:100090005F0100085F0100085F0100085F010008C0
:1000A0005F0100085F0100085F0100085F010008B0
:1000B0005F0100085F0100085F0100085F010008A0
:1000C0005F0100085F0100085F0100085F01000890
:1000D0005F0100085F0100085F01000805220008B9
:1000E0005F0100085F0100085F0100085F01000870
:1000F0005F0100085F0100085F0100085F01000860
:100100005F0100085F0100085F0100085F0100084F
:100110005F0100085F0100085F0100085F0100083F
:100120005F0100085F0100085F0100085F0100082F
:10013000DFF80CD000F036F900480047FD23000836
:10014000980600200648804706480047FEE7FEE77D
:10015000FEE7FEE7FEE7FEE7FEE7FEE7FEE7FEE777
:10016000E51C00083101000840EA01039B0703D0A9
:1001700009E008C9121F08C0042AFAD203E011F8E6
:10018000013B00F8013B521EF9D27047D2B201E0A8
:1001900000F8012B491EFBD270470022F6E710B58C
:1001A00013460A4604461946FFF7F0FF204610BDE5
:1001B000F0B480EA0102D40F4200B2EB410F02D248
:1001C0000246084611464A0042D0C30DDDB2C1F3D3
:1001D000C752AD1A202D35DAC1F3160141F40002E1
:1001E00004B15242C5F1200602FA06F12A41104438
:1001F000B3EBD05F23D0C4B1012DA0EBC35009DC19
:10020000F0BC4FF0004202EAC352DBB200F500003E
:1002100000F099B8400000F1807000EBC350A0F1ED
:10022000807040EAD170490009E0490841EAC07194
:10023000A0EBC35000F50000400800EBC350F0BC39
:1002400000F078B86142012202EB4101001BF6E7A1
:10025000F0BC704781F00041AAE780F00040A7E7BA
:1002600080EA010210B502F00043400022D04A00AB
:100270001FD0010E01EB1261C0F35600C2F356020B
:1002800040F4000042F40002A0FB022000047F3989
:10029000140400D0401C50EA124001D44000491E12
:1002A000C2B20C0604EBD010401C4008802A02D0D9
:1002B00003E0002010BD20F00100002900DA00203A
:1002C000184310BDC10F80EAE0700844CA079623A6
:1002D000002100F038B800F0004220F00040C10DCD
:1002E000C0F3160040F400007F2901DA00207047B7
:1002F000962903DCC1F19601C84001E09639884097
:10030000002AF4D04042704730B50B460146002029
:100310002022012409E021FA02F59D4205D303FAC7
:1003200002F5491B04FA02F52844151EA2F1010248
:10033000F1DC30BD0029A8BF7047401C490008BF50
:1003400020F00100704710B4B0FA80FC00FA0CF005
:1003500050EA010404BF10BC704749B1CCF120043D
:1003600021FA04F411FA0CF118BF012121430843CA
:10037000A3EB0C01CB1D4FEA00614FEA102042BFF6
:10038000002010BC704700EBC35010440029A4BFEC
:1003900010BC7047401C490008BF20F0010010BC91
:1003A00070470000064C074D06E0E06840F001038E
:1003B00094E8070098471034AC42F6D3FFF7BCFE30
:1003C0002825000848250008FEE7704710B50021E1
:1003D000164800F0C3FE0421144800F0BFFE134885
:1003E00042F21074006844620021114800F0B6FE29
:1003F00004210F4800F0B2FE0D480068446200215D
:100400000C4800F0ABFE04210A4800F0A7FE0948A2
:10041000006844620021084800F0A0FE042106485C
:1004200000F09CFE04480068446210BD800000207B
:10043000C0000020000100204001002070470000A3
:100440002DE9F05F90F821100024022903D0042147
:100450008163012485E001680A6822F00E020A60C7
:1004600001680A6822F001020A603F4E3E4FB21551
:10047000DFF8F4C0DFF8F090DFF8ECA0DFF8E8B0C8
:10048000DFF8E4E00168783F13011502ACF1640C79
:10049000A9F15009AAF13C0AABF1280BAEF1140EF8
:1004A0004FF48018B14227D9B9420ED0614512D01D
:1004B00049451DD0514518D0594518D0714501D135
:1004C000424615E0294EB14201D1012210E0274EEB
:1004D0001436B14201D110220AE0244E2836B1422E
:1004E00006D0224A3C32914201D11A4600E02A4607
:1004F0001E49091F0A602BE0B94213D0614517D08D
:10050000494522D051451DD059451DD0714501D1D5
:1005100042461AE0B14202D14FF0807215E0134E0C
:10052000B14201D1012210E0104E1436B14201D186
:1005300010220AE00D4E2836B14206D00B4A3C325A
:10054000914201D11A4600E02A46074980394A60A3
:10055000012180F82110002180F82010416B01B1A9
:1005600088472046BDE8F09F800002400804024012
:1005700070B5044600F010F90546601C02D004482E
:100580000078044400F008F9401BA042FAD370BD83
:100590006C0000202DE9F84FDFF8C891002409F124
:1005A000040A0AF1040B23460F270BF1040ED1E0D5
:1005B0000125A54006EA0502AA4276D1DFF8A8C1C6
:1005C0004E68A6EB0C0866452BD00DDC032E34D00C
:1005D00005DC36B3012E19D0022E2FD11BE0112ECF
:1005E00016D0122E2AD119E0B8F5881F19D006DCD2
:1005F000B8F5803F15D0B8F5801F1FD111E0B8F5D0
:10060000001F0ED0B8F5041F18D10AE0CB6815E022
:10061000CB681B1D12E0CB6808330FE0CB680C33AE
:100620000CE08B682BB1012B4FF0080303D0456120
:1006300004E0042302E0056100E00023FF2A01D862
:10064000064601E000F104064FEA840501D9A5F150
:100650002005D6F8008007FA05FC28EA0C0803FA02
:1006600005F548EA0508C6F800804D68ED0070D52C
:100670003E4DAE6946F00106AE61AD6924F0030659
:1006800005F0010500953A4D06EB050CDCF8085025
:10069000A607360F07FA06F825EA0805DFF8D48022
:1006A000404503D14FF0000825E052E0DFF8C88054
:1006B000404502D14FF001081DE0DFF8C080404501
:1006C00002D14FF0020816E0DFF8B480404502D1B5
:1006D0004FF003080FE0DFF8AC80404502D14FF047
:1006E000040808E0DFF8A080404502D14FF005087B
:1006F00001E04FF0060808FA06F848EA0508CCF8C9
:1007000008804D68D9F80060ED034D4601D51643C9
:1007100000E096432E604D68DAF80060AD03554660
:1007200001D5164300E096432E604D68DBF800606B
:10073000ED025D4601D5164300E096432E604D68FC
:10074000DEF80060AD02754601D5164300E0964321
:100750002E60641C0A681646E2407FF429AFBDE8AB
:10076000F88F00000004014000001110001002404A
:100770000000014000080140000C01400010014051
:100780000014014000180140001C01400AB1016141
:1007900070470904FBE700000148806870470000CB
:1007A0006C00002002488168027811448160704723
:1007B0006C000020074810B5016841F0100101608D
:1007C000032000F075F8002000F006F800F024F88F
:1007D000002010BD0020024070B50D4D04464FF4BE
:1007E0007A712878B1FBF0F00A490968B1FBF0F0A2
:1007F00000F0FEFA48B9102C07D200222146501E04
:1008000000F036F800206C6070BD012070BD000063
:100810006C000020780000200C4808B5816941F088
:1008200001018161816901F001010091C16941F01B
:100830008051C161C06900F0805000900448416857
:1008400021F0E06141F00071416008BD00100240FC
:1008500000000140002809DB00F01F020121914047
:100860004009800000F1E020C0F80011704700004E
:10087000F0B40E4B1B680C46C3F30223C3F107050B
:10088000042D00D90425191D072901D2002300E0F9
:10089000DB1E012606FA05F1491E214099409E40C3
:1008A000761E16403143F0BC01F0C4BC0CED00E0F4
:1008B000064900F0070208684FF6FF03184040EAB7
:1008C0000220034A10430860704700000CED00E06E
:1008D0000000FA052DE9F0470F46050061D0434EB0
:1008E000306800F00700B84209D2306820F00700F5
:1008F00038433060306800F00700B84251D12868B2
:100900003B4C810712D5400703D5606840F4E06096
:1009100060602878000703D5606840F4605060602C
:100920006068A96820F0F000084360602878C0077C
:1009300028D06868012810D02168022810D08907C3
:1009400000292EDA616821F0030101436160FFF79D
:1009500023FF804641F288390DE021688903EFE7E3
:100960008901EDE7FFF718FFA0EB0801494502D91F
:100970000320BDE8F0876068696800F00C00B0EB08
:10098000810FEFD1306800F00700B8420BD9306812
:1009900020F0070038433060306800F00700B842AC
:1009A00001D00120E5E72878400705D56068E968AF
:1009B00020F4E060084360602878000706D560688E
:1009C000296920F4605040EAC100606000F038F806
:1009D0006168084AC1F30311515CC84006490860C8
:1009E00006480068FFF7F8FE0020C2E7002002403A
:1009F0000010024010250008780000207000002040
:100A00000448054900684968044AC1F30221515C61
:100A1000C8407047780000200010024020250008E0
:100A20000448054900684968044AC1F3C221515C81
:100A3000C8407047780000200010024020250008C0
:100A400012A185B00FC98DE80F0014A0144A0068E8
:100A500004905168134801F00C03042B10D0082BAC
:100A60000ED1C1F38343C9031DF803000AD55168B1
:100A700004AAC1F34041515C0A4A5043B0FBF1F073
:100A800005B0704708494843FAE70000020304052F
:100A9000060708090A0B0C0D0E0F101001020000CA
:100AA0000010024000127A0000093D002DE9F84FC5
:100AB000040070D02078C04DC00749D06868C0F3EA
:100AC0008100012807D06868C0F38100022809D19D
:100AD0006868C00306D52868800339D56068002897
:100AE000E7D035E06068B0F5803F0BD010B1B0F5CD
:100AF000A02F11D0286820F480302860286820F4C6
:100B0000802002E0286840F480302860606890B15E
:100B1000FFF742FE06460AE0286840F4802028607D
:100B2000F0E700BFFFF738FE801B642873D8286801
:100B30008003F7D50CE0FFF72FFE064605E000BF67
:100B4000FFF72AFE801B6428F0D828688003F7D4BA
:100B500020789A4E80074FF001094FF0000839D5F0
:100B6000686810F00C0F07D06868C0F38100022895
:100B700009D16868C00306D42868800714D52069A5
:100B8000012808D110E02069B0B1C6F80090FFF745
:100B900003FE074605E00AE1FFF7FEFDC01B022841
:100BA000C4D828688007F7D52868616920F0F80064
:100BB00040EAC10028600DE0C6F80080FFF7ECFDB8
:100BC000074604E0FFF7E8FDC01B022823D8286889
:100BD0008007F7D4207800072CD57948A169D9B1CE
:100BE000C0F80090FFF7D8FD074604E0FFF7D4FDFA
:100BF000C01B02280FD8686A8007F7D571484FF4E8
:100C0000FA510068B0FBF1F0009000BF0098411E5F
:100C10000091FAD20EE080E0C0F80080FFF7BCFD42
:100C2000074604E0FFF7B8FDC01B022875D8686AC4
:100C30008007F7D42078400760D5E8690027C00016
:100C400008D4E86940F08050E861E869012700F0C5
:100C5000805000905C480168C90513D40168834640
:100C600041F480710160FFF797FD824606E000BF06
:100C7000FFF792FDA0EB0A0064284ED8DBF80000D5
:100C8000C005F5D5E06801280AD008B1052813D0C1
:100C9000286A20F001002862286A20F0040002E09F
:100CA000286A40F001002862E06841F2883B98B170
:100CB000FFF772FD82460BE0286A40F004002862CC
:100CC000EEE700BFFFF768FDA0EB0A0159455AD8CF
:100CD000286A8007F6D50CE0FFF75EFD824605E046
:100CE000FFF75AFDA0EB0A0159454CD8286A800746
:100CF000F6D41FB1E86920F08050E861E06988B35C
:100D00006968C1F38101022944D00228C6F86080D5
:100D100004D0FFF741FD044638E034E0FFF73CFD26
:100D2000074604E0FFF738FDC01B02282BD82868CF
:100D30008001F7D4206AB0F5803F05D16868A168CA
:100D400020F4003008436860D4E90801084369686A
:100D500021F4741108436860C6F86090FFF71CFD29
:100D6000044606E025E000BFFFF716FD001B022841
:100D700009D828688001F7D51BE000BFFFF70CFDFC
:100D8000001B022802D90320BDE8F88F28688001E3
:100D9000F4D40EE00128F7D06868226A00F48031AC
:100DA000914204D1616A00F47010884201D00120A0
:100DB000EAE70020E8E7000000100240000042429D
:100DC00080044242780000200070004010B5074CBB
:100DD0002068401C2060322807D100F0FBFE00F0A4
:100DE0008DFE00F0DBFD0020206010BD0000002023
:100DF00010B5401EB0F1807F01D3012010BD4FF02F
:100E0000E02460610F21601701F014FA0020A06156
:100E100007202061002010BD10B5FFF7D7FF10BDDF
:100E200070B590F83C20012A19D0012400F83C4FFD
:100E30000222427050F83C3C5A689D6822F07006CD
:100E40000A684968324325F0800529435A6050F802
:100E50003C2C9160447000210170084670BD022056
:100E600070BD10B5040003D094F83D0010B107E048
:100E7000012010BD002084F83C00204600F00CF852
:100E8000022084F83D00211D206800F04FFF012062
:100E900084F83D00002010BD08B50068064988426E
:100EA00008D10648C16941F00801C161C06900F07C
:100EB0000800009008BD0000000C00400010024037
:100EC00070B5044690F83C00012817D0012584F83D
:100ED0003C50022084F83D002068826822F07702AE
:100EE00022F47F4282600868502830D00DDC202830
:100EF0004DD005DC98B310283BD148E0022070BDEE
:100F0000302844D0402834D139E0602828D07028D7
:100F100006D0B0F5805F2CD0B0F5005F29D10AE093
:100F2000CB68D1E90121206800F053FF2068816877
:100F300041F0770109E0CB68D1E90121206800F098
:100F400048FF2068816841F48041816011E0CA68EF
:100F50004968206801F012F85021206807E016E087
:100F6000CA684968206801F01AF86021206800F01A
:100F70003AFF84F83D50002084F83C0070BDCA68F8
:100F80004968206800F0FAFF40212068EFE72268F6
:100F900001461046EBE72DE9F0410D46040003D071
:100FA00094F83D0018B108E00120BDE8F081002070
:100FB00084F83C00204600F03BF8022084F83D0015
:100FC0002068816844F2070291438160211D2068F6
:100FD00000F0ACFE226890689169166A2B68AF69D0
:100FE000034340F20330814341EA0721A868EF69D7
:100FF00008434FF6FC418843E96840EA0720014373
:1010000028692F6A000140EA0730084369686D6962
:1010100026F0220646EA051529439360226890616E
:1010200020680162012084F83D000020BDE7000037
:1010300030B585B0002400940194029403940068B4
:101040003F4A4049404B904213D1886940F40060C8
:101050008861886900F400600490886940F00400A9
:101060008861886900F0040004904FF4407000909B
:1010700018E0364DB0F1804F1AD0354CC022A04256
:1010800047D1C86940F00200C861C86900F0020099
:101090000490886940F0040088618869009200F03B
:1010A0000400049069461846FFF774FA05B030BD95
:1010B000C86940F00100C861C86900F001000490EF
:1010C000886940F004008861886900F00400049099
:1010D000886940F0080088618869694600F0080066
:1010E00004904FF4004000901846FFF753FA082090
:1010F000CDE90004694628460294FFF74BFA1548EB
:10110000416821F4407141F0E06141F48071416037
:10111000CCE7114B9842C9D1C86940F00400C861BE
:10112000C86900F004000490886940F008008861F4
:101130008869694600F00800049000922846B3E7E9
:10114000002C01400010024000080140000C01404A
:1011500000040040000001400008004010B50446B3
:10116000006891B1042904D00122002100F024FE7E
:10117000206801225FF0040100F01EFE2068016873
:1011800041F001010160002010BD01220021F3E7C0
:1011900000B585B000210091019102910391006892
:1011A0000B49884211D10B48816941F004018161EA
:1011B0008069694600F0040004900F20009002202E
:1011C000019003900448FFF7E5F905B000BD000069
:1011D000000C0040001002400008014070B50446B9
:1011E00090F83C000D4601280DD0012684F83C60A3
:1011F000022084F83D0042B1042A18D0082A2AD0DF
:101200000C2A4DD139E0022070BD206800F0F4FDB9
:101210002068816941F0080181612068816921F0BD
:1012200004018161206881692A69114311E0206805
:1012300000F012FE2068816941F40061816120683C
:10124000816921F480618161206881692A6941EAAC
:101250000221816124E0206800F034FE2068C16929
:1012600041F00801C1612068C16921F00401C16138
:101270002068C1692A69114311E0206800F056FE18
:101280002068C16941F40061C1612068C16921F42D
:101290008061C1612068C1692A6941EA0221C16196
:1012A00084F83D60002084F83C0070BD10B5040057
:1012B00003D094F83D0010B107E0012010BD0020DC
:1012C00084F83C00204600F00CF8022084F83D0031
:1012D000211D206800F02AFD012084F83D00002037
:1012E00010BD704710B504460068012200F064FD8F
:1012F0000B492068884202D00A49884203D1416CD8
:1013000041F4004141642068816801F00701062929
:1013100003D0016841F001010160002010BD000010
:10132000002C0140003401407047000070B5026895
:1013300004461068D168536910F00F0F51D003F0C4
:10134000010501F4907635435DD0C20705D0CA058A
:1013500003D5E26B42F00102E263420705D5DA07EA
:1013600003D0E26B42F00202E263820705D5DA079E
:1013700003D0E26B42F00402E263020705D5DA070C
:1013800003D0E26B42F00802E263E26B002A34D041
:10139000800604D5880602D5204600F028FE206885
:1013A0004069E16BC0F3801001F008010143204661
:1013B00024D000F00EFE2068416949061AD5416923
:1013C00021F040014161606BA0B11B494163606B3A
:1013D000FFF736F8002810D0606B416BBDE8704015
:1013E000084783060FD58B060DD52046BDE8704013
:1013F00000F0FDBD2046FFF797FF70BDFFF794FF9B
:101400000020E06370BD030606D50B0604D5204618
:10141000BDE8704000F092BE4006F3D54806F1D515
:10142000D168204621F04001D160202184F8391094
:1014300000F019F970BD0000C31F000870B504006A
:1014400004D094F83900002510B106E0012070BDE9
:1014500084F83850204600F023F8242084F839001E
:101460002068C16821F40051C160204600F00AFEE6
:101470002068016921F4904101612068416921F0EF
:101480002A0141612068C16841F40051C160E563EF
:10149000202084F8390084F83A00002070BD000054
:1014A00030B585B000240094019402940394006840
:1014B0001D49884235D11D48C16941F48021C1616F
:1014C000C16901F480210491816941F010018161B9
:1014D0008069174D00F0100004904FF48060009078
:1014E000022001900320039069462846FFF752F836
:1014F000E814CDE90004694628460294FFF74AF84B
:101500000C48416821F0300141F0E06141F01001E8
:101510004160002211462720FFF7AAF92720FFF794
:1015200099F905B030BD00000048004000100240AD
:10153000001001400000014090F83A30202B22D1E9
:10154000F9B1F2B190F83830012B1CD0816282855C
:10155000C2850021C163222280F83A2080F8381029
:101560000168CA6842F48072CA6001684A6942F040
:1015700001024A610068C16841F02001C160002099
:1015800070470120704702207047000010B501210C
:10159000044800F085FFBDE81040012201490248DF
:1015A000FFF7CABF64000020C00100202DE9F84306
:1015B000044690F839001F4616460D46202850D1A3
:1015C000A5B19EB194F8380001284AD0012084F8D2
:1015D00038004FF00008C4F83C80212084F839001E
:1015E000FFF7DAF8A6848146E68426E00120BDE80C
:1015F000F883E08C401EE084A0684B46B0F5805F25
:101600004FF000024FF080012046009703D000F019
:10161000C6FDE8B90DE000F0C2FDC8B92888216810
:10162000C0F308004860206908B16D1C05E0AD1CDE
:1016300003E0216815F8010B4860E08C0028D8D140
:101640004B46002240212046009700F0A8FD08B13B
:101650000320CCE7202084F8390084F8388000206B
:10166000C5E70220C3E77047FEE7000070B586B00B
:1016700000241C480094019402940394816941F071
:1016800020018161816901F020010491816941F0AB
:1016900004018161816901F004010491816941F0D3
:1016A00008018161816901F008010491816941F0BB
:1016B0001001816180690C4E00F0100047F607456B
:1016C0000490002229463046FFF760F8012000957B
:1016D000CDE901040220039069463046FEF75AFF27
:1016E00006B070BD00100240000C014010B58CB077
:1016F00024216846FEF751FD002416480994144938
:101700000A94C0E900144EF65F21C0E90241046169
:10171000446184610320CDE900040120CDE9020485
:101720000494CDE90540079469460A480894FFF7F8
:1017300032FC08B1FEF782FE099409A905480A9413
:10174000FFF76EFB002801D0FEF778FE0CB010BD4D
:10175000002C01408000002010B58CB02421684688
:10176000FEF71BFD0024154809944FF080410A94B0
:10177000C0E900144EF65F21C0E9024104618461B2
:101780000320CDE900040120CDE902040494CDE951
:1017900005400794694609480894FFF7FCFB08B127
:1017A000FEF74CFE099409A904480A94FFF738FB98
:1017B000002801D0FEF742FE0CB010BDC000002092
:1017C00010B58CB024216846FEF7E7FC00241648CB
:1017D000099414490A94C0E900144EF65F21C0E947
:1017E0000241046184610320CDE900040120CDE9B8
:1017F00002040494CDE90540079469460A48089418
:10180000FFF7C9FB08B1FEF719FE099409A90648BC
:101810000A94FFF705FB002801D0FEF70FFE0CB07D
:1018200010BD0000000400400001002010B58CB085
:1018300024216846FEF7B1FC002416480994144997
:101840000A94C0E900144EF65F21C0E90241046128
:1018500084610320CDE900040120CDE90204049451
:10186000CDE90540079469460A480894FFF793FBC1
:1018700008B1FEF7E3FD099409A906480A94FFF7A9
:10188000CFFA002801D0FEF7D9FD0CB010BD000042
:10189000000800404001002010B58EB000240794DD
:1018A000089409940A940B941C2168460C94FEF742
:1018B00074FC2A48284901604721C0E9011440F21C
:1018C000E731C0E903148461FFF7CBFA08B1FEF7F2
:1018D000B5FD4FF48050079007A92048FFF7F0FAB4
:1018E00008B1FEF7ABFD1D48FFF7E0FC08B1FEF7BD
:1018F000A5FD0B940BA919480C94FFF791FA08B1B8
:10190000FEF79CFD6020CDE90004029400226946A8
:1019100012480494FFF762FC08B1FEF78FFD042221
:1019200069460E48FFF75AFC08B1FEF787FD08220A
:1019300069460A48FFF752FC08B1FEF77FFD0C220A
:1019400069460648FFF74AFC08B1FEF777FD0348F1
:10195000FFF71EFC0EB010BD000C004080010020FF
:101960000C4810B50A4901604FF4E1314160002193
:1019700081600C22C160C0E904128161C161FFF77E
:101980005DFD002803D0BDE81040FEF757BD10BD37
:1019900000480040C0010020FEE7000010B5074CE1
:1019A000606B00F035F8A06B00F07EF8E06B00F0A3
:1019B00007F8206CBDE8104000F04EB8040000208D
:1019C0002DE9F041104D114E041E4FF400614FF40B
:1019D00080570CDD01222846FEF7D8FE002239464A
:1019E0002846FEF7D3FE3068C463BDE8F0810022CC
:1019F0002846FEF7CBFE012239462846FEF7C6FEF2
:101A000031686042C863F0E7000C014080010020AB
:101A100070B50F4D0F4E041E0CDD0022012128462B
:101A2000FEF7B4FE012202212846FEF7AFFE306821
:101A3000446370BD012211462846FEF7A7FE00222E
:101A400002212846FEF7A2FE31686042486370BD5D
:101A5000000C0140800100202DE9F041104D114E95
:101A6000041E4FF400514FF480470CDD002228463D
:101A7000FEF78CFE012239462846FEF787FE3068C5
:101A80000464BDE8F08101222846FEF77FFE0022B3
:101A900039462846FEF77AFE316860420864F0E76E
:101AA000000C0140800100202DE9F041104D114E45
:101AB000041E4FF480670DDD012204212846FEF745
:101AC00065FE002239462846FEF760FE30688463D2
:101AD000BDE8F081002204212846FEF757FE0122CE
:101AE00039462846FEF752FE316860428863EFE7C8
:101AF000000C0140800100207047000010B5134C1D
:101B00006169606A00F03CF86063A169A06A00F056
:101B100037F8A063E169E06A00F032F8E063216A17
:101B2000206B00F02DF82064606B00F059FC6063BE
:101B3000A06B00F055FCA063E06B00F051FCE0638B
:101B4000206C00F04DFC206410BD0000040000205B
:101B500010B500210848FFF7C5FB04210648FFF730
:101B6000C1FB08210448FFF7BDFBBDE810400C2174
:101B70000148FFF7B7BB000080010020704700005C
:101B80002DE9F041124C0D1AE06C4619E664206D07
:101B9000281AFEF797FBA168FEF762FB074630465E
:101BA000FEF790FB6168FEF75BFB06462846FEF7F2
:101BB00089FB2168FEF754FB3146FEF7F9FA3946F6
:101BC000FEF7F6FAFEF787FB2565BDE8F081000019
:101BD0000400002000B500F019F800F039F800F01A
:101BE00005F85DF804EB00F021B800000548016835
:101BF0004A6A054B42F21070821ADA62486201208A
:101C00007047000000010020040000200548016822
:101C10004A6A054B42F21070821A5A6248620120E9
:101C20007047000080000020040000200648006883
:101C3000416A064AA1F51C511039116342F2107134
:101C40004162012070470000400100200400002094
:101C500006480068416A064AA1F51C511039916294
:101C600042F210714162012070470000C000002064
:101C700004000020024948618861C8610862704719
:101C800004000020704710B5FEF78CFDBDE8104041
:101C9000FFF7C2B830B58FB028216846FEF77DFA4D
:101CA00014210AA8FEF779FA01210804CDE90010F1
:101CB0000024029402250491CDE907504FF4E0106E
:101CC00009906846FEF7F2FE0F20CDE90A0568028A
:101CD000CDE90C4002210AA80E94FEF7FBFD0FB0DF
:101CE00030BD00000D48016841F00101016041680C
:101CF0000B4A1140416001680A4A114001600168C5
:101D000021F480210160416821F4FE0141604FF41B
:101D10001F0181600449C003086070470010024041
:101D20000000FFF8FFFFF6FE08ED00E0F0B50268E6
:101D30001C4B1D4D1D4E1E4F1E4C4FF0804C9842AB
:101D400009D0A04207D0604505D0A84203D0B042D8
:101D500001D0B84204D122F0700E4A6842EA0E0265
:101D6000984209D0A04207D0604505D0A84203D0D0
:101D7000B04201D0B84203D122F44075CA682A4368
:101D80004D6922F080022A4302608A68C2620A68B2
:101D90008262984201D0A04201D109690163012108
:101DA0004161F0BD002C01400004004000080040EB
:101DB000000C00400034014010B501F01F03012168
:101DC000046A99408C430462016A9A40114301629B
:101DD00010BD10B5846842EA032224F47F440A430C
:101DE0002243826010BD826822F070020A4342F0F2
:101DF0000701816070470000F0B5026A22F001021D
:101E00000262036A42688469124E24F073050C680A
:101E10002C4323F002058B682B430D4DA84201D0C3
:101E2000B04205D123F00807CB683B4323F00403FD
:101E3000A84201D0B04205D14D6922F44072154349
:101E40008A692A4342608461496841630362F0BD44
:101E5000002C014000340140F0B5026A22F010026B
:101E60000262026A436884690D6824F4E64444EA25
:101E700005248D6822F0200242EA05120F4D104E13
:101E8000A84201D0B04206D1CF6822F0800242EAD7
:101E9000071222F04002A84201D0B04207D14D699A
:101EA00023F4406343EA85038D6943EA8503436075
:101EB0008461496881630262F0BD0000002C01402A
:101EC00000340140F0B5026A22F480720262026AB4
:101ED0004368C46922F4007224F073050C68124E42
:101EE0002C438D6842EA05220E4DA84201D0B04233
:101EF00006D1CF6822F4006242EA072222F480620F
:101F0000A84201D0B04207D14D6923F4405343EABF
:101F100005138D6943EA05134360C4614968C163D1
:101F20000262F0BD002C01400034014030B5026A6D
:101F300022F480520262046A4268C3690D6823F485
:101F4000E64343EA05238D6824F4005444EA05344B
:101F5000084DA84202D0084DA84204D14D6922F490
:101F6000804242EA85124260C361496801640462AA
:101F700030BD0000002C01400034014010B5036A60
:101F8000046A24F001040462846924F0F00444EA41
:101F9000021423F00A020A438461026210BD10B5E4
:101FA000036A23F0100303628369046A23F4704315
:101FB00043EA023224F0A00343EA01118261016284
:101FC00010BD10B5406A0021C185C184FFF7ACF98E
:101FD00010BD0168CA6822F49072CA6001684A693B
:101FE00022F001024A61202180F83A10704710B5B2
:101FF00090F83A10222901D0022010BD8168B1F575
:10200000805F11D00169002901681FD0496801F083
:102010007F03816A4A1C82620B70C18D491E0904CC
:10202000090CC18518D02BE00269816A002A026878
:10203000526805D0D2B20A80816A491C8162ECE7FD
:10204000C2F308020A80816A891CF7E74A68816A3C
:102050004B1C83620A70E0E70168CA6822F0200224
:10206000CA600168CA6822F48072CA6001684A695D
:1020700022F001024A61202180F83A10FFF786FA27
:10208000002010BD2DE9F041044600680169E268B6
:1020900021F44051114301612169A068084361693D
:1020A00008432168CA6841F20C639A430243CA603C
:1020B00020684169A26921F44071114341611E49C0
:1020C000206864253226884202D1FEF7A9FC01E08F
:1020D000FEF796FC00EBC00101EB001160686FF0A9
:1020E00018078000B1FBF0F2B2FBF5F2B1FBF0F3A0
:1020F0007A4303EB8202B1FBF0F306EB0212B2FB70
:10210000F5F2B3FBF5F302F0F00202EB0312B1FBC0
:10211000F0F3B1FBF0F0B0FBF5F0784303EB800097
:1021200006EB0010B0FBF5F0216800F00F00104442
:102130008860BDE8F08100000038014090F8391057
:10214000212901D0022070478168B1F5805F016AC2
:102150000BD04A1C0262026809785160C18C491E8A
:102160000904090CC1840ED017E009880268C1F384
:102170000801516001690029016A02D0491C01620D
:10218000ECE7891CFBE70168CA6822F08002CA609C
:102190000068C16841F04001C160002070472DE92E
:1021A000F041984617460E460446069D1DE0681C01
:1021B0001BD02DB1FEF7F0FAA0EB0800A84214D90D
:1021C0002068C16821F4D071C1602068416921F0A4
:1021D00001014161202084F8390084F83A00002090
:1021E00084F838000320BDE8F0812068006836EAF2
:1021F000000004D00020B842D9D00020F3E701202D
:10220000F9E700000148FFF791B80000C001002085
:10221000FEE700000FB4054B10B503A9044A02986D
:1022200000F028F810BC5DF814FB0000C92300087A
:102230007C0000200907090E002804DB00F1E020E3
:1022400080F80014704700F00F0000F1E02080F8E3
:10225000141D704702E008C8121F08C1002AFAD1F5
:1022600070477047002001E001C1121F002AFBD116
:10227000704700002DE9FF4F89B09B4604460025BA
:1022800006E025280BD05A460B999047641C6D1C1C
:1022900020780028F5D10DB02846BDE8F08F002742
:1022A000B8460122474900E0074314F8013F203BAC
:1022B00002FA03F00842F7D120782E2819D114F839
:1022C000010F47F004072A280ED06FF02F02207864
:1022D000A0F1300109290CD808EB880102EB41017B
:1022E00000EB0108641CF2E70A98641C50F8048BA8
:1022F0000A9020780028CED0642808D0692806D01B
:1023000075281ED05A460B9990476D1C58E00A99C3
:102310004FF00A0901C90A91002802DA40422D2132
:1023200002E0390504D52B218DF82010012103E0AE
:10233000F90704D02021F7E78A4608AE0DE0002116
:10234000FAE70A994FF00A0901C90A91F7E74946E5
:10235000FDF7DAFF303106F8011D0028F7D1ADEBAB
:10236000060000F12009780701D44FF00108C845A4
:1023700002DDA8EB090000E000208046002706E00F
:1023800008A85A46C05D0B9990476D1C7F1C5745A5
:10239000F6DB04E030205A460B9990476D1CB8F1EB
:1023A0000001A8F10108F5DC05E016F8010B5A461A
:1023B0000B9990476D1CB9F10001A9F10109F4DCFA
:1023C000641C65E70928010013B54FF6FF7301226D
:1023D00069460248FFF7EAF800981CBDC0010020DA
:1023E000002805DB4FF47A71884200DB084670470D
:1023F00001498842FADB704718FCFFFF08B5FEF779
:10240000D9F9FFF747FCFFF731F9FFF7A5F9FFF717
:102410006DF9FFF7D5F9FFF709FAFFF73DFAFFF776
:102420009FFA00F069F8FFF793FBFDF7CFFF012259
:102430000E490F48FFF780F86420FEF799F80B4922
:10244000012048603220FFF715FC0A4C0A4D0B4E64
:102450000B4F206800902B6832680AA03968FFF79C
:10246000D9FE3220FEF784F8F3E700006400002074
:10247000C001002034000020300000202C0000208B
:10248000280000206C313D25642C6C323D25642CE5
:102490006C333D25642C6C343D25640D0A0000002E
:1024A0002DE9F041DFF84C80054640460C46B8F86F
:1024B0000610C38800680A19D8F800701844802AEA
:1024C0000AD9C1F180018EB232462946FDF74CFE91
:1024D000A21BA919384601E022462946FDF744FE11
:1024E00098F80610214401F07F01A8F80610BDE815
:1024F000F08100000C0200200448002101614161CC
:102500001830A0F10C010860002070470002002084
:102510000000000000000000010203040607080993
:10252000000000000102030448250008000000200C
:102530008000000054220008C82500088000002008
:102540001806000064220008000000000000A040FF
:10255000CDCCCC3D000000000000803FCDCC4C3DF8
:10256000000000000000000000000000000000006B
:10257000000000000000000000000000000000005B
:10258000000000000000000000000000000000004B
:10259000000000000000000000000000000000003B
:1025A000000000000000000000000000000000002B
:1025B000000000000100000010000000000000000A
:0825C0000024F40000000000FB
:0400000508000131BD
:00000001FF
